{
  "_format": "hh-sol-artifact-1",
  "contractName": "SchoolSystem",
  "sourceName": "contracts/School.sol",
  "abi": [
    {
      "inputs": [
        {
          "internalType": "string",
          "name": "name",
          "type": "string"
        },
        {
          "internalType": "string",
          "name": "symbol",
          "type": "string"
        }
      ],
      "stateMutability": "nonpayable",
      "type": "constructor"
    },
    {
      "anonymous": false,
      "inputs": [
        {
          "indexed": true,
          "internalType": "address",
          "name": "owner",
          "type": "address"
        },
        {
          "indexed": true,
          "internalType": "address",
          "name": "approved",
          "type": "address"
        },
        {
          "indexed": true,
          "internalType": "uint256",
          "name": "tokenId",
          "type": "uint256"
        }
      ],
      "name": "Approval",
      "type": "event"
    },
    {
      "anonymous": false,
      "inputs": [
        {
          "indexed": true,
          "internalType": "address",
          "name": "owner",
          "type": "address"
        },
        {
          "indexed": true,
          "internalType": "address",
          "name": "operator",
          "type": "address"
        },
        {
          "indexed": false,
          "internalType": "bool",
          "name": "approved",
          "type": "bool"
        }
      ],
      "name": "ApprovalForAll",
      "type": "event"
    },
    {
      "anonymous": false,
      "inputs": [
        {
          "indexed": false,
          "internalType": "uint256",
          "name": "sessionId",
          "type": "uint256"
        },
        {
          "indexed": false,
          "internalType": "address",
          "name": "student",
          "type": "address"
        }
      ],
      "name": "AttendanceMarked",
      "type": "event"
    },
    {
      "anonymous": false,
      "inputs": [
        {
          "indexed": false,
          "internalType": "uint256",
          "name": "id",
          "type": "uint256"
        },
        {
          "indexed": false,
          "internalType": "uint256",
          "name": "courseId",
          "type": "uint256"
        },
        {
          "indexed": false,
          "internalType": "uint256",
          "name": "timestamp",
          "type": "uint256"
        }
      ],
      "name": "ClassSessionCreated",
      "type": "event"
    },
    {
      "anonymous": false,
      "inputs": [
        {
          "indexed": false,
          "internalType": "uint256",
          "name": "id",
          "type": "uint256"
        },
        {
          "indexed": false,
          "internalType": "string",
          "name": "name",
          "type": "string"
        },
        {
          "indexed": false,
          "internalType": "address",
          "name": "lecturer",
          "type": "address"
        },
        {
          "indexed": false,
          "internalType": "uint256",
          "name": "capacity",
          "type": "uint256"
        }
      ],
      "name": "CourseCreated",
      "type": "event"
    },
    {
      "anonymous": false,
      "inputs": [
        {
          "indexed": true,
          "internalType": "address",
          "name": "previousOwner",
          "type": "address"
        },
        {
          "indexed": true,
          "internalType": "address",
          "name": "newOwner",
          "type": "address"
        }
      ],
      "name": "OwnershipTransferred",
      "type": "event"
    },
    {
      "anonymous": false,
      "inputs": [
        {
          "indexed": false,
          "internalType": "string",
          "name": "courseName",
          "type": "string"
        },
        {
          "indexed": false,
          "internalType": "address",
          "name": "student",
          "type": "address"
        }
      ],
      "name": "StudentRegistered",
      "type": "event"
    },
    {
      "anonymous": false,
      "inputs": [
        {
          "indexed": false,
          "internalType": "uint256",
          "name": "courseId",
          "type": "uint256"
        },
        {
          "indexed": false,
          "internalType": "address",
          "name": "student",
          "type": "address"
        }
      ],
      "name": "StudentRegistered",
      "type": "event"
    },
    {
      "anonymous": false,
      "inputs": [
        {
          "indexed": true,
          "internalType": "address",
          "name": "from",
          "type": "address"
        },
        {
          "indexed": true,
          "internalType": "address",
          "name": "to",
          "type": "address"
        },
        {
          "indexed": true,
          "internalType": "uint256",
          "name": "tokenId",
          "type": "uint256"
        }
      ],
      "name": "Transfer",
      "type": "event"
    },
    {
      "inputs": [
        {
          "internalType": "address",
          "name": "_student",
          "type": "address"
        },
        {
          "internalType": "uint256",
          "name": "_amount",
          "type": "uint256"
        }
      ],
      "name": "admit_student",
      "outputs": [],
      "stateMutability": "nonpayable",
      "type": "function"
    },
    {
      "inputs": [
        {
          "internalType": "address",
          "name": "to",
          "type": "address"
        },
        {
          "internalType": "uint256",
          "name": "tokenId",
          "type": "uint256"
        }
      ],
      "name": "approve",
      "outputs": [],
      "stateMutability": "nonpayable",
      "type": "function"
    },
    {
      "inputs": [
        {
          "internalType": "address",
          "name": "owner",
          "type": "address"
        }
      ],
      "name": "balanceOf",
      "outputs": [
        {
          "internalType": "uint256",
          "name": "",
          "type": "uint256"
        }
      ],
      "stateMutability": "view",
      "type": "function"
    },
    {
      "inputs": [],
      "name": "calculateAttendancePercentage",
      "outputs": [
        {
          "internalType": "uint256",
          "name": "",
          "type": "uint256"
        }
      ],
      "stateMutability": "view",
      "type": "function"
    },
    {
      "inputs": [
        {
          "internalType": "uint256",
          "name": "",
          "type": "uint256"
        }
      ],
      "name": "courses",
      "outputs": [
        {
          "internalType": "uint256",
          "name": "id",
          "type": "uint256"
        },
        {
          "internalType": "string",
          "name": "name",
          "type": "string"
        },
        {
          "internalType": "address",
          "name": "lecturer",
          "type": "address"
        },
        {
          "internalType": "uint256",
          "name": "capacity",
          "type": "uint256"
        },
        {
          "internalType": "uint256",
          "name": "enrolledStudents",
          "type": "uint256"
        },
        {
          "internalType": "uint256",
          "name": "sessionId",
          "type": "uint256"
        },
        {
          "internalType": "string",
          "name": "description",
          "type": "string"
        }
      ],
      "stateMutability": "view",
      "type": "function"
    },
    {
      "inputs": [
        {
          "internalType": "uint256",
          "name": "_courseId",
          "type": "uint256"
        },
        {
          "internalType": "uint256",
          "name": "_timestamp",
          "type": "uint256"
        }
      ],
      "name": "createClassSession",
      "outputs": [],
      "stateMutability": "nonpayable",
      "type": "function"
    },
    {
      "inputs": [
        {
          "internalType": "string",
          "name": "_name",
          "type": "string"
        },
        {
          "internalType": "uint256",
          "name": "_capacity",
          "type": "uint256"
        },
        {
          "internalType": "string",
          "name": "course_desc",
          "type": "string"
        }
      ],
      "name": "createCourse",
      "outputs": [],
      "stateMutability": "nonpayable",
      "type": "function"
    },
    {
      "inputs": [
        {
          "internalType": "address",
          "name": "_lecturer",
          "type": "address"
        },
        {
          "internalType": "uint256",
          "name": "_amount",
          "type": "uint256"
        }
      ],
      "name": "employ_Lecturer",
      "outputs": [],
      "stateMutability": "nonpayable",
      "type": "function"
    },
    {
      "inputs": [],
      "name": "getAllCourseNames",
      "outputs": [
        {
          "internalType": "string[]",
          "name": "",
          "type": "string[]"
        }
      ],
      "stateMutability": "view",
      "type": "function"
    },
    {
      "inputs": [],
      "name": "getAllCourses",
      "outputs": [
        {
          "internalType": "string[]",
          "name": "",
          "type": "string[]"
        },
        {
          "internalType": "address[]",
          "name": "",
          "type": "address[]"
        },
        {
          "internalType": "uint256[]",
          "name": "",
          "type": "uint256[]"
        },
        {
          "internalType": "uint256[]",
          "name": "",
          "type": "uint256[]"
        },
        {
          "internalType": "string[]",
          "name": "",
          "type": "string[]"
        }
      ],
      "stateMutability": "view",
      "type": "function"
    },
    {
      "inputs": [
        {
          "internalType": "uint256",
          "name": "tokenId",
          "type": "uint256"
        }
      ],
      "name": "getApproved",
      "outputs": [
        {
          "internalType": "address",
          "name": "",
          "type": "address"
        }
      ],
      "stateMutability": "view",
      "type": "function"
    },
    {
      "inputs": [
        {
          "internalType": "address",
          "name": "_student",
          "type": "address"
        }
      ],
      "name": "getCoursesRegisteredByStudent",
      "outputs": [
        {
          "internalType": "uint256[]",
          "name": "",
          "type": "uint256[]"
        }
      ],
      "stateMutability": "view",
      "type": "function"
    },
    {
      "inputs": [],
      "name": "getListOfStudents",
      "outputs": [
        {
          "internalType": "address[]",
          "name": "",
          "type": "address[]"
        }
      ],
      "stateMutability": "view",
      "type": "function"
    },
    {
      "inputs": [],
      "name": "getSessionIdsForLecturer",
      "outputs": [
        {
          "internalType": "uint256[]",
          "name": "",
          "type": "uint256[]"
        }
      ],
      "stateMutability": "view",
      "type": "function"
    },
    {
      "inputs": [],
      "name": "getTotalRegisteredCourses",
      "outputs": [
        {
          "internalType": "uint256",
          "name": "",
          "type": "uint256"
        }
      ],
      "stateMutability": "view",
      "type": "function"
    },
    {
      "inputs": [
        {
          "internalType": "address",
          "name": "owner",
          "type": "address"
        },
        {
          "internalType": "address",
          "name": "operator",
          "type": "address"
        }
      ],
      "name": "isApprovedForAll",
      "outputs": [
        {
          "internalType": "bool",
          "name": "",
          "type": "bool"
        }
      ],
      "stateMutability": "view",
      "type": "function"
    },
    {
      "inputs": [
        {
          "internalType": "uint256",
          "name": "_sessionId",
          "type": "uint256"
        }
      ],
      "name": "markAttendance",
      "outputs": [],
      "stateMutability": "nonpayable",
      "type": "function"
    },
    {
      "inputs": [],
      "name": "name",
      "outputs": [
        {
          "internalType": "string",
          "name": "",
          "type": "string"
        }
      ],
      "stateMutability": "view",
      "type": "function"
    },
    {
      "inputs": [],
      "name": "owner",
      "outputs": [
        {
          "internalType": "address",
          "name": "",
          "type": "address"
        }
      ],
      "stateMutability": "view",
      "type": "function"
    },
    {
      "inputs": [
        {
          "internalType": "uint256",
          "name": "tokenId",
          "type": "uint256"
        }
      ],
      "name": "ownerOf",
      "outputs": [
        {
          "internalType": "address",
          "name": "",
          "type": "address"
        }
      ],
      "stateMutability": "view",
      "type": "function"
    },
    {
      "inputs": [
        {
          "internalType": "string",
          "name": "_courseName",
          "type": "string"
        }
      ],
      "name": "registerForCourse",
      "outputs": [],
      "stateMutability": "nonpayable",
      "type": "function"
    },
    {
      "inputs": [],
      "name": "renounceOwnership",
      "outputs": [],
      "stateMutability": "nonpayable",
      "type": "function"
    },
    {
      "inputs": [
        {
          "internalType": "address",
          "name": "from",
          "type": "address"
        },
        {
          "internalType": "address",
          "name": "to",
          "type": "address"
        },
        {
          "internalType": "uint256",
          "name": "tokenId",
          "type": "uint256"
        }
      ],
      "name": "safeTransferFrom",
      "outputs": [],
      "stateMutability": "nonpayable",
      "type": "function"
    },
    {
      "inputs": [
        {
          "internalType": "address",
          "name": "from",
          "type": "address"
        },
        {
          "internalType": "address",
          "name": "to",
          "type": "address"
        },
        {
          "internalType": "uint256",
          "name": "tokenId",
          "type": "uint256"
        },
        {
          "internalType": "bytes",
          "name": "_data",
          "type": "bytes"
        }
      ],
      "name": "safeTransferFrom",
      "outputs": [],
      "stateMutability": "nonpayable",
      "type": "function"
    },
    {
      "inputs": [
        {
          "internalType": "address",
          "name": "operator",
          "type": "address"
        },
        {
          "internalType": "bool",
          "name": "approved",
          "type": "bool"
        }
      ],
      "name": "setApprovalForAll",
      "outputs": [],
      "stateMutability": "nonpayable",
      "type": "function"
    },
    {
      "inputs": [
        {
          "internalType": "address",
          "name": "",
          "type": "address"
        },
        {
          "internalType": "uint256",
          "name": "",
          "type": "uint256"
        }
      ],
      "name": "studentCourses",
      "outputs": [
        {
          "internalType": "uint256",
          "name": "",
          "type": "uint256"
        }
      ],
      "stateMutability": "view",
      "type": "function"
    },
    {
      "inputs": [
        {
          "internalType": "uint256",
          "name": "",
          "type": "uint256"
        }
      ],
      "name": "students",
      "outputs": [
        {
          "internalType": "address",
          "name": "",
          "type": "address"
        }
      ],
      "stateMutability": "view",
      "type": "function"
    },
    {
      "inputs": [
        {
          "internalType": "bytes4",
          "name": "interfaceId",
          "type": "bytes4"
        }
      ],
      "name": "supportsInterface",
      "outputs": [
        {
          "internalType": "bool",
          "name": "",
          "type": "bool"
        }
      ],
      "stateMutability": "view",
      "type": "function"
    },
    {
      "inputs": [],
      "name": "symbol",
      "outputs": [
        {
          "internalType": "string",
          "name": "",
          "type": "string"
        }
      ],
      "stateMutability": "view",
      "type": "function"
    },
    {
      "inputs": [
        {
          "internalType": "uint256",
          "name": "tokenId",
          "type": "uint256"
        }
      ],
      "name": "tokenURI",
      "outputs": [
        {
          "internalType": "string",
          "name": "",
          "type": "string"
        }
      ],
      "stateMutability": "view",
      "type": "function"
    },
    {
      "inputs": [
        {
          "internalType": "address",
          "name": "from",
          "type": "address"
        },
        {
          "internalType": "address",
          "name": "to",
          "type": "address"
        },
        {
          "internalType": "uint256",
          "name": "tokenId",
          "type": "uint256"
        }
      ],
      "name": "transferFrom",
      "outputs": [],
      "stateMutability": "nonpayable",
      "type": "function"
    },
    {
      "inputs": [
        {
          "internalType": "address",
          "name": "newOwner",
          "type": "address"
        }
      ],
      "name": "transferOwnership",
      "outputs": [],
      "stateMutability": "nonpayable",
      "type": "function"
    }
  ],
  "bytecode": "0x60806040523480156200001157600080fd5b506040516200613d3803806200613d8339818101604052810190620000379190620002e8565b818181600090816200004a9190620005b8565b5080600190816200005c9190620005b8565b5050506200007f620000736200008760201b60201c565b6200008f60201b60201c565b50506200069f565b600033905090565b6000600660009054906101000a900473ffffffffffffffffffffffffffffffffffffffff16905081600660006101000a81548173ffffffffffffffffffffffffffffffffffffffff021916908373ffffffffffffffffffffffffffffffffffffffff1602179055508173ffffffffffffffffffffffffffffffffffffffff168173ffffffffffffffffffffffffffffffffffffffff167f8be0079c531659141344cd1fd0a4f28419497f9722a3daafe3b4186f6b6457e060405160405180910390a35050565b6000604051905090565b600080fd5b600080fd5b600080fd5b600080fd5b6000601f19601f8301169050919050565b7f4e487b7100000000000000000000000000000000000000000000000000000000600052604160045260246000fd5b620001be8262000173565b810181811067ffffffffffffffff82111715620001e057620001df62000184565b5b80604052505050565b6000620001f562000155565b9050620002038282620001b3565b919050565b600067ffffffffffffffff82111562000226576200022562000184565b5b620002318262000173565b9050602081019050919050565b60005b838110156200025e57808201518184015260208101905062000241565b60008484015250505050565b6000620002816200027b8462000208565b620001e9565b905082815260208101848484011115620002a0576200029f6200016e565b5b620002ad8482856200023e565b509392505050565b600082601f830112620002cd57620002cc62000169565b5b8151620002df8482602086016200026a565b91505092915050565b600080604083850312156200030257620003016200015f565b5b600083015167ffffffffffffffff81111562000323576200032262000164565b5b6200033185828601620002b5565b925050602083015167ffffffffffffffff81111562000355576200035462000164565b5b6200036385828601620002b5565b9150509250929050565b600081519050919050565b7f4e487b7100000000000000000000000000000000000000000000000000000000600052602260045260246000fd5b60006002820490506001821680620003c057607f821691505b602082108103620003d657620003d562000378565b5b50919050565b60008190508160005260206000209050919050565b60006020601f8301049050919050565b600082821b905092915050565b600060088302620004407fffffffffffffffffffffffffffffffffffffffffffffffffffffffffffffffff8262000401565b6200044c868362000401565b95508019841693508086168417925050509392505050565b6000819050919050565b6000819050919050565b600062000499620004936200048d8462000464565b6200046e565b62000464565b9050919050565b6000819050919050565b620004b58362000478565b620004cd620004c482620004a0565b8484546200040e565b825550505050565b600090565b620004e4620004d5565b620004f1818484620004aa565b505050565b5b8181101562000519576200050d600082620004da565b600181019050620004f7565b5050565b601f82111562000568576200053281620003dc565b6200053d84620003f1565b810160208510156200054d578190505b620005656200055c85620003f1565b830182620004f6565b50505b505050565b600082821c905092915050565b60006200058d600019846008026200056d565b1980831691505092915050565b6000620005a883836200057a565b9150826002028217905092915050565b620005c3826200036d565b67ffffffffffffffff811115620005df57620005de62000184565b5b620005eb8254620003a7565b620005f88282856200051d565b600060209050601f8311600181146200063057600084156200061b578287015190505b6200062785826200059a565b86555062000697565b601f1984166200064086620003dc565b60005b828110156200066a5784890151825560018201915060208501945060208101905062000643565b868310156200068a578489015162000686601f8916826200057a565b8355505b6001600288020188555050505b505050505050565b615a8e80620006af6000396000f3fe608060405234801561001057600080fd5b50600436106101f05760003560e01c806395d89b411161010f578063c87b56dd116100a2578063e985e9c511610071578063e985e9c5146105af578063f2fde38b146105df578063f77eb97b146105fb578063fd95cc5114610617576101f0565b8063c87b56dd14610529578063cb65066014610559578063d723f2e714610575578063e774371614610593576101f0565b8063a22cb465116100de578063a22cb465146104b7578063ade4f8a2146104d3578063aec9d1b8146104ef578063b88d4fde1461050d576101f0565b806395d89b411461042b57806396f979d2146104495780639d0475da1461047f578063a17768671461049b576101f0565b80633c9f93b1116101875780636ecd89bb116101565780636ecd89bb146103b557806370a08231146103d3578063715018a6146104035780638da5cb5b1461040d576101f0565b80633c9f93b11461031b57806342842e0e1461034b5780635b2babd0146103675780636352211e14610385576101f0565b8063081812fc116101c3578063081812fc14610295578063095ea7b3146102c557806315f6febd146102e157806323b872dd146102ff576101f0565b806301ffc9a7146101f557806304e48bd11461022557806306ead22e1461024757806306fdde0314610277575b600080fd5b61020f600480360381019061020a91906138d1565b610647565b60405161021c9190613919565b60405180910390f35b61022d610729565b60405161023e959493929190613c3e565b60405180910390f35b610261600480360381019061025c9190613ce0565b610ba8565b60405161026e9190613d1c565b60405180910390f35b61027f610be7565b60405161028c9190613d81565b60405180910390f35b6102af60048036038101906102aa9190613ce0565b610c79565b6040516102bc9190613d1c565b60405180910390f35b6102df60048036038101906102da9190613dcf565b610cfe565b005b6102e9610e15565b6040516102f69190613e0f565b60405180910390f35b61031960048036038101906103149190613e31565b610ea3565b005b61033560048036038101906103309190613e84565b610f03565b6040516103429190613eb1565b60405180910390f35b61036560048036038101906103609190613e31565b610f9a565b005b61036f610fba565b60405161037c9190613ee2565b60405180910390f35b61039f600480360381019061039a9190613ce0565b6111fe565b6040516103ac9190613d1c565b60405180910390f35b6103bd6112af565b6040516103ca9190613ee2565b60405180910390f35b6103ed60048036038101906103e89190613e84565b6112f9565b6040516103fa9190613ee2565b60405180910390f35b61040b6113b0565b005b610415611438565b6040516104229190613d1c565b60405180910390f35b610433611462565b6040516104409190613d81565b60405180910390f35b610463600480360381019061045e9190613ce0565b6114f4565b6040516104769796959493929190613efd565b60405180910390f35b610499600480360381019061049491906140af565b611666565b005b6104b560048036038101906104b0919061413a565b611828565b005b6104d160048036038101906104cc91906141af565b611b40565b005b6104ed60048036038101906104e89190613ce0565b611b56565b005b6104f7611e29565b6040516105049190613eb1565b60405180910390f35b61052760048036038101906105229190614290565b612005565b005b610543600480360381019061053e9190613ce0565b612067565b6040516105509190613d81565b60405180910390f35b610573600480360381019061056e9190613dcf565b61210e565b005b61057d61233d565b60405161058a9190614313565b60405180910390f35b6105ad60048036038101906105a89190613dcf565b612487565b005b6105c960048036038101906105c49190614335565b612653565b6040516105d69190613919565b60405180910390f35b6105f960048036038101906105f49190613e84565b6126e7565b005b61061560048036038101906106109190614375565b6126f3565b005b610631600480360381019061062c9190613dcf565b612961565b60405161063e9190613ee2565b60405180910390f35b60007f80ac58cd000000000000000000000000000000000000000000000000000000007bffffffffffffffffffffffffffffffffffffffffffffffffffffffff1916827bffffffffffffffffffffffffffffffffffffffffffffffffffffffff1916148061071257507f5b5e139f000000000000000000000000000000000000000000000000000000007bffffffffffffffffffffffffffffffffffffffffffffffffffffffff1916827bffffffffffffffffffffffffffffffffffffffffffffffffffffffff1916145b80610722575061072182612992565b5b9050919050565b6060806060806060600060075467ffffffffffffffff81111561074f5761074e613f84565b5b60405190808252806020026020018201604052801561078257816020015b606081526020019060019003908161076d5790505b509050600060075467ffffffffffffffff8111156107a3576107a2613f84565b5b6040519080825280602002602001820160405280156107d15781602001602082028036833780820191505090505b509050600060075467ffffffffffffffff8111156107f2576107f1613f84565b5b6040519080825280602002602001820160405280156108205781602001602082028036833780820191505090505b509050600060075467ffffffffffffffff81111561084157610840613f84565b5b60405190808252806020026020018201604052801561086f5781602001602082028036833780820191505090505b509050600060075467ffffffffffffffff8111156108905761088f613f84565b5b6040519080825280602002602001820160405280156108c357816020015b60608152602001906001900390816108ae5790505b50905060005b600754811015610b8c57600f60006001836108e491906143e4565b8152602001908152602001600020600101805461090090614447565b80601f016020809104026020016040519081016040528092919081815260200182805461092c90614447565b80156109795780601f1061094e57610100808354040283529160200191610979565b820191906000526020600020905b81548152906001019060200180831161095c57829003601f168201915b505050505086828151811061099157610990614478565b5b6020026020010181905250600f60006001836109ad91906143e4565b815260200190815260200160002060020160009054906101000a900473ffffffffffffffffffffffffffffffffffffffff168582815181106109f2576109f1614478565b5b602002602001019073ffffffffffffffffffffffffffffffffffffffff16908173ffffffffffffffffffffffffffffffffffffffff1681525050600f6000600183610a3d91906143e4565b815260200190815260200160002060030154848281518110610a6257610a61614478565b5b602002602001018181525050600f6000600183610a7f91906143e4565b815260200190815260200160002060040154838281518110610aa457610aa3614478565b5b602002602001018181525050600f6000600183610ac191906143e4565b81526020019081526020016000206007018054610add90614447565b80601f0160208091040260200160405190810160405280929190818152602001828054610b0990614447565b8015610b565780601f10610b2b57610100808354040283529160200191610b56565b820191906000526020600020905b815481529060010190602001808311610b3957829003601f168201915b5050505050828281518110610b6e57610b6d614478565b5b60200260200101819052508080610b84906144a7565b9150506108c9565b5084848484849950995099509950995050505050509091929394565b60108181548110610bb857600080fd5b906000526020600020016000915054906101000a900473ffffffffffffffffffffffffffffffffffffffff1681565b606060008054610bf690614447565b80601f0160208091040260200160405190810160405280929190818152602001828054610c2290614447565b8015610c6f5780601f10610c4457610100808354040283529160200191610c6f565b820191906000526020600020905b815481529060010190602001808311610c5257829003601f168201915b5050505050905090565b6000610c84826129fc565b610cc3576040517f08c379a0000000000000000000000000000000000000000000000000000000008152600401610cba90614561565b60405180910390fd5b6004600083815260200190815260200160002060009054906101000a900473ffffffffffffffffffffffffffffffffffffffff169050919050565b6000610d09826111fe565b90508073ffffffffffffffffffffffffffffffffffffffff168373ffffffffffffffffffffffffffffffffffffffff1603610d79576040517f08c379a0000000000000000000000000000000000000000000000000000000008152600401610d70906145cd565b60405180910390fd5b8073ffffffffffffffffffffffffffffffffffffffff16610d98612a68565b73ffffffffffffffffffffffffffffffffffffffff161480610dc75750610dc681610dc1612a68565b612653565b5b610e06576040517f08c379a0000000000000000000000000000000000000000000000000000000008152600401610dfd9061465f565b60405180910390fd5b610e108383612a70565b505050565b60606010805480602002602001604051908101604052809291908181526020018280548015610e9957602002820191906000526020600020905b8160009054906101000a900473ffffffffffffffffffffffffffffffffffffffff1673ffffffffffffffffffffffffffffffffffffffff1681526020019060010190808311610e4f575b5050505050905090565b610eb4610eae612a68565b82612b29565b610ef3576040517f08c379a0000000000000000000000000000000000000000000000000000000008152600401610eea906146f1565b60405180910390fd5b610efe838383612c07565b505050565b6060601260008373ffffffffffffffffffffffffffffffffffffffff1673ffffffffffffffffffffffffffffffffffffffff168152602001908152602001600020805480602002602001604051908101604052809291908181526020018280548015610f8e57602002820191906000526020600020905b815481526020019060010190808311610f7a575b50505050509050919050565b610fb583838360405180602001604052806000815250612005565b505050565b6000600e60003373ffffffffffffffffffffffffffffffffffffffff1673ffffffffffffffffffffffffffffffffffffffff16815260200190815260200160002060009054906101000a900460ff16611048576040517f08c379a000000000000000000000000000000000000000000000000000000000815260040161103f90614783565b60405180910390fd5b60008060005b601260003373ffffffffffffffffffffffffffffffffffffffff1673ffffffffffffffffffffffffffffffffffffffff168152602001908152602001600020805490508110156111ca576000601260003373ffffffffffffffffffffffffffffffffffffffff1673ffffffffffffffffffffffffffffffffffffffff16815260200190815260200160002082815481106110eb576110ea614478565b5b90600052602060002001549050600061110382612e6d565b905080518461111291906143e4565b935060005b81518110156111b4576001601360003373ffffffffffffffffffffffffffffffffffffffff1673ffffffffffffffffffffffffffffffffffffffff168152602001908152602001600020600084848151811061117657611175614478565b5b6020026020010151815260200190815260200160002054036111a157858061119d906144a7565b9650505b80806111ac906144a7565b915050611117565b50505080806111c2906144a7565b91505061104e565b50600081036111de576000925050506111fb565b806064836111ec91906147a3565b6111f69190614814565b925050505b90565b6000806002600084815260200190815260200160002060009054906101000a900473ffffffffffffffffffffffffffffffffffffffff169050600073ffffffffffffffffffffffffffffffffffffffff168173ffffffffffffffffffffffffffffffffffffffff16036112a6576040517f08c379a000000000000000000000000000000000000000000000000000000000815260040161129d906148b7565b60405180910390fd5b80915050919050565b6000601260003373ffffffffffffffffffffffffffffffffffffffff1673ffffffffffffffffffffffffffffffffffffffff16815260200190815260200160002080549050905090565b60008073ffffffffffffffffffffffffffffffffffffffff168273ffffffffffffffffffffffffffffffffffffffff1603611369576040517f08c379a000000000000000000000000000000000000000000000000000000000815260040161136090614949565b60405180910390fd5b600360008373ffffffffffffffffffffffffffffffffffffffff1673ffffffffffffffffffffffffffffffffffffffff168152602001908152602001600020549050919050565b6113b8612a68565b73ffffffffffffffffffffffffffffffffffffffff166113d6611438565b73ffffffffffffffffffffffffffffffffffffffff161461142c576040517f08c379a0000000000000000000000000000000000000000000000000000000008152600401611423906149b5565b60405180910390fd5b6114366000612f70565b565b6000600660009054906101000a900473ffffffffffffffffffffffffffffffffffffffff16905090565b60606001805461147190614447565b80601f016020809104026020016040519081016040528092919081815260200182805461149d90614447565b80156114ea5780601f106114bf576101008083540402835291602001916114ea565b820191906000526020600020905b8154815290600101906020018083116114cd57829003601f168201915b5050505050905090565b600f60205280600052604060002060009150905080600001549080600101805461151d90614447565b80601f016020809104026020016040519081016040528092919081815260200182805461154990614447565b80156115965780601f1061156b57610100808354040283529160200191611596565b820191906000526020600020905b81548152906001019060200180831161157957829003601f168201915b5050505050908060020160009054906101000a900473ffffffffffffffffffffffffffffffffffffffff16908060030154908060040154908060050154908060070180546115e390614447565b80601f016020809104026020016040519081016040528092919081815260200182805461160f90614447565b801561165c5780601f106116315761010080835404028352916020019161165c565b820191906000526020600020905b81548152906001019060200180831161163f57829003601f168201915b5050505050905087565b61166f83613036565b156116af576040517f08c379a00000000000000000000000000000000000000000000000000000000081526004016116a690614a47565b60405180910390fd5b600760008154809291906116c2906144a7565b9190505550600060075490506000600f60008381526020019081526020016000209050848160010190816116f69190614c13565b50338160020160006101000a81548173ffffffffffffffffffffffffffffffffffffffff021916908373ffffffffffffffffffffffffffffffffffffffff1602179055508381600301819055506000816004018190555060008160050181905550828160070190816117689190614c13565b5081600a8660405161177a9190614d21565b9081526020016040518091039020819055506001601460003373ffffffffffffffffffffffffffffffffffffffff1673ffffffffffffffffffffffffffffffffffffffff16815260200190815260200160002060006101000a81548160ff0219169083151502179055507f48ecb80c764507d9b513e5fbdba76e8b8177d246e4314b2718204d1027f99673828633876040516118199493929190614d38565b60405180910390a15050505050565b600e60003373ffffffffffffffffffffffffffffffffffffffff1673ffffffffffffffffffffffffffffffffffffffff16815260200190815260200160002060009054906101000a900460ff166118b4576040517f08c379a00000000000000000000000000000000000000000000000000000000081526004016118ab90614783565b60405180910390fd5b6000600a826040516118c69190614d21565b90815260200160405180910390205403611915576040517f08c379a000000000000000000000000000000000000000000000000000000000815260040161190c90614dd0565b60405180910390fd5b6000600a826040516119279190614d21565b90815260200160405180910390205490506000600f600083815260200190815260200160002090508060030154816004015410611999576040517f08c379a000000000000000000000000000000000000000000000000000000000815260040161199090614e3c565b60405180910390fd5b8060060160003373ffffffffffffffffffffffffffffffffffffffff1673ffffffffffffffffffffffffffffffffffffffff16815260200190815260200160002060009054906101000a900460ff1615611a28576040517f08c379a0000000000000000000000000000000000000000000000000000000008152600401611a1f90614ea8565b60405180910390fd5b806004016000815480929190611a3d906144a7565b919050555060018160060160003373ffffffffffffffffffffffffffffffffffffffff1673ffffffffffffffffffffffffffffffffffffffff16815260200190815260200160002060006101000a81548160ff021916908315150217905550601260003373ffffffffffffffffffffffffffffffffffffffff1673ffffffffffffffffffffffffffffffffffffffff1681526020019081526020016000208290806001815401808255809150506001900390600052602060002001600090919091909150557faa541cc9975b48a66ff0fcced1b6a07701b89f4bf70332c0e06f406f61b8e9798333604051611b33929190614ec8565b60405180910390a1505050565b611b52611b4b612a68565b8383613061565b5050565b600e60003373ffffffffffffffffffffffffffffffffffffffff1673ffffffffffffffffffffffffffffffffffffffff16815260200190815260200160002060009054906101000a900460ff16611be2576040517f08c379a0000000000000000000000000000000000000000000000000000000008152600401611bd990614783565b60405180910390fd5b60008111611c25576040517f08c379a0000000000000000000000000000000000000000000000000000000008152600401611c1c90614f44565b60405180910390fd5b60006011600083815260200190815260200160002090506000816001015411611c83576040517f08c379a0000000000000000000000000000000000000000000000000000000008152600401611c7a90614fb0565b60405180910390fd5b8060030160009054906101000a900460ff1615611cd5576040517f08c379a0000000000000000000000000000000000000000000000000000000008152600401611ccc9061501c565b60405180910390fd5b600f60008260010154815260200190815260200160002060060160003373ffffffffffffffffffffffffffffffffffffffff1673ffffffffffffffffffffffffffffffffffffffff16815260200190815260200160002060009054906101000a900460ff16611d79576040517f08c379a0000000000000000000000000000000000000000000000000000000008152600401611d70906150ae565b60405180910390fd5b6001601360003373ffffffffffffffffffffffffffffffffffffffff1673ffffffffffffffffffffffffffffffffffffffff16815260200190815260200160002060008481526020019081526020016000208190555060018160030160006101000a81548160ff0219169083151502179055507f9e5d24579183fa37d9de3c53c170caae77e5ea5a3ed2c66fdd356f590ff779f48233604051611e1d9291906150ce565b60405180910390a15050565b6060600d60003373ffffffffffffffffffffffffffffffffffffffff1673ffffffffffffffffffffffffffffffffffffffff16815260200190815260200160002060009054906101000a900460ff16611eb7576040517f08c379a0000000000000000000000000000000000000000000000000000000008152600401611eae90615169565b60405180910390fd5b600060075467ffffffffffffffff811115611ed557611ed4613f84565b5b604051908082528060200260200182016040528015611f035781602001602082028036833780820191505090505b509050600080600190505b6007548111611ffc573373ffffffffffffffffffffffffffffffffffffffff16600f600083815260200190815260200160002060020160009054906101000a900473ffffffffffffffffffffffffffffffffffffffff1673ffffffffffffffffffffffffffffffffffffffff16148015611f9f57506000600f60008381526020019081526020016000206005015414155b15611fe957600f600082815260200190815260200160002060050154838381518110611fce57611fcd614478565b5b6020026020010181815250508180611fe5906144a7565b9250505b8080611ff4906144a7565b915050611f0e565b50819250505090565b612016612010612a68565b83612b29565b612055576040517f08c379a000000000000000000000000000000000000000000000000000000000815260040161204c906146f1565b60405180910390fd5b612061848484846131cd565b50505050565b6060612072826129fc565b6120b1576040517f08c379a00000000000000000000000000000000000000000000000000000000081526004016120a8906151fb565b60405180910390fd5b60006120bb61323c565b905060008151116120db5760405180602001604052806000815250612106565b806120e584613253565b6040516020016120f692919061521b565b6040516020818303038152906040525b915050919050565b612116611438565b73ffffffffffffffffffffffffffffffffffffffff163373ffffffffffffffffffffffffffffffffffffffff1614612183576040517f08c379a000000000000000000000000000000000000000000000000000000000815260040161217a906152b1565b60405180910390fd5b600e60008373ffffffffffffffffffffffffffffffffffffffff1673ffffffffffffffffffffffffffffffffffffffff16815260200190815260200160002060009054906101000a900460ff1615612210576040517f08c379a00000000000000000000000000000000000000000000000000000000081526004016122079061531d565b60405180910390fd5b80600c60008473ffffffffffffffffffffffffffffffffffffffff1673ffffffffffffffffffffffffffffffffffffffff168152602001908152602001600020600082825461225f91906143e4565b925050819055506001600e60008473ffffffffffffffffffffffffffffffffffffffff1673ffffffffffffffffffffffffffffffffffffffff16815260200190815260200160002060006101000a81548160ff0219169083151502179055506010829080600181540180825580915050600190039060005260206000200160009091909190916101000a81548173ffffffffffffffffffffffffffffffffffffffff021916908373ffffffffffffffffffffffffffffffffffffffff16021790555060096000815480929190612334906144a7565b91905055505050565b6060600060075467ffffffffffffffff81111561235d5761235c613f84565b5b60405190808252806020026020018201604052801561239057816020015b606081526020019060019003908161237b5790505b5090506000600190505b600754811161247f57600f600082815260200190815260200160002060010180546123c490614447565b80601f01602080910402602001604051908101604052809291908181526020018280546123f090614447565b801561243d5780601f106124125761010080835404028352916020019161243d565b820191906000526020600020905b81548152906001019060200180831161242057829003601f168201915b505050505082600183612450919061533d565b8151811061246157612460614478565b5b60200260200101819052508080612477906144a7565b91505061239a565b508091505090565b61248f611438565b73ffffffffffffffffffffffffffffffffffffffff163373ffffffffffffffffffffffffffffffffffffffff16146124fc576040517f08c379a00000000000000000000000000000000000000000000000000000000081526004016124f3906152b1565b60405180910390fd5b600d60008373ffffffffffffffffffffffffffffffffffffffff1673ffffffffffffffffffffffffffffffffffffffff16815260200190815260200160002060009054906101000a900460ff1615612589576040517f08c379a0000000000000000000000000000000000000000000000000000000008152600401612580906153bd565b60405180910390fd5b80600b60008473ffffffffffffffffffffffffffffffffffffffff1673ffffffffffffffffffffffffffffffffffffffff16815260200190815260200160002060008282546125d891906143e4565b925050819055506001600d60008473ffffffffffffffffffffffffffffffffffffffff1673ffffffffffffffffffffffffffffffffffffffff16815260200190815260200160002060006101000a81548160ff0219169083151502179055506008600081548092919061264a906144a7565b91905055505050565b6000600560008473ffffffffffffffffffffffffffffffffffffffff1673ffffffffffffffffffffffffffffffffffffffff16815260200190815260200160002060008373ffffffffffffffffffffffffffffffffffffffff1673ffffffffffffffffffffffffffffffffffffffff16815260200190815260200160002060009054906101000a900460ff16905092915050565b6126f081612f70565b50565b600d60003373ffffffffffffffffffffffffffffffffffffffff1673ffffffffffffffffffffffffffffffffffffffff16815260200190815260200160002060009054906101000a900460ff1661277f576040517f08c379a000000000000000000000000000000000000000000000000000000000815260040161277690615169565b60405180910390fd5b6000600b60003373ffffffffffffffffffffffffffffffffffffffff1673ffffffffffffffffffffffffffffffffffffffff1681526020019081526020016000205411612801576040517f08c379a00000000000000000000000000000000000000000000000000000000081526004016127f890615429565b60405180910390fd5b60008211801561281357506007548211155b612852576040517f08c379a000000000000000000000000000000000000000000000000000000000815260040161284990615495565b60405180910390fd5b60004233846040516020016128699392919061551e565b6040516020818303038152906040528051906020012060001c90506040518060800160405280828152602001848152602001838152602001600015158152506011600083815260200190815260200160002060008201518160000155602082015181600101556040820151816002015560608201518160030160006101000a81548160ff0219169083151502179055509050507f9d810e0082f8a92772407ea94a85bc457d358804c697a63a434a5043bf81be7f81848460405161292f9392919061555b565b60405180910390a161294133826133b3565b80600f600085815260200190815260200160002060050181905550505050565b6012602052816000526040600020818154811061297d57600080fd5b90600052602060002001600091509150505481565b60007f01ffc9a7000000000000000000000000000000000000000000000000000000007bffffffffffffffffffffffffffffffffffffffffffffffffffffffff1916827bffffffffffffffffffffffffffffffffffffffffffffffffffffffff1916149050919050565b60008073ffffffffffffffffffffffffffffffffffffffff166002600084815260200190815260200160002060009054906101000a900473ffffffffffffffffffffffffffffffffffffffff1673ffffffffffffffffffffffffffffffffffffffff1614159050919050565b600033905090565b816004600083815260200190815260200160002060006101000a81548173ffffffffffffffffffffffffffffffffffffffff021916908373ffffffffffffffffffffffffffffffffffffffff160217905550808273ffffffffffffffffffffffffffffffffffffffff16612ae3836111fe565b73ffffffffffffffffffffffffffffffffffffffff167f8c5be1e5ebec7d5bd14f71427d1e84f3dd0314c0f7b2291e5b200ac8c7c3b92560405160405180910390a45050565b6000612b34826129fc565b612b73576040517f08c379a0000000000000000000000000000000000000000000000000000000008152600401612b6a90615604565b60405180910390fd5b6000612b7e836111fe565b90508073ffffffffffffffffffffffffffffffffffffffff168473ffffffffffffffffffffffffffffffffffffffff161480612bc05750612bbf8185612653565b5b80612bfe57508373ffffffffffffffffffffffffffffffffffffffff16612be684610c79565b73ffffffffffffffffffffffffffffffffffffffff16145b91505092915050565b8273ffffffffffffffffffffffffffffffffffffffff16612c27826111fe565b73ffffffffffffffffffffffffffffffffffffffff1614612c7d576040517f08c379a0000000000000000000000000000000000000000000000000000000008152600401612c7490615696565b60405180910390fd5b600073ffffffffffffffffffffffffffffffffffffffff168273ffffffffffffffffffffffffffffffffffffffff1603612cec576040517f08c379a0000000000000000000000000000000000000000000000000000000008152600401612ce390615728565b60405180910390fd5b612cf783838361358c565b612d02600082612a70565b6001600360008573ffffffffffffffffffffffffffffffffffffffff1673ffffffffffffffffffffffffffffffffffffffff1681526020019081526020016000206000828254612d52919061533d565b925050819055506001600360008473ffffffffffffffffffffffffffffffffffffffff1673ffffffffffffffffffffffffffffffffffffffff1681526020019081526020016000206000828254612da991906143e4565b92505081905550816002600083815260200190815260200160002060006101000a81548173ffffffffffffffffffffffffffffffffffffffff021916908373ffffffffffffffffffffffffffffffffffffffff160217905550808273ffffffffffffffffffffffffffffffffffffffff168473ffffffffffffffffffffffffffffffffffffffff167fddf252ad1be2c89b69c2b068fc378daa952ba7f163c4a11628f55a4df523b3ef60405160405180910390a4612e68838383613591565b505050565b6060600060075467ffffffffffffffff811115612e8d57612e8c613f84565b5b604051908082528060200260200182016040528015612ebb5781602001602082028036833780820191505090505b5090506000805b600754811015612f655784600f600083815260200190815260200160002060000154148015612f0857506000600f60008381526020019081526020016000206005015414155b15612f5257600f600082815260200190815260200160002060050154838381518110612f3757612f36614478565b5b6020026020010181815250508180612f4e906144a7565b9250505b8080612f5d906144a7565b915050612ec2565b508192505050919050565b6000600660009054906101000a900473ffffffffffffffffffffffffffffffffffffffff16905081600660006101000a81548173ffffffffffffffffffffffffffffffffffffffff021916908373ffffffffffffffffffffffffffffffffffffffff1602179055508173ffffffffffffffffffffffffffffffffffffffff168173ffffffffffffffffffffffffffffffffffffffff167f8be0079c531659141344cd1fd0a4f28419497f9722a3daafe3b4186f6b6457e060405160405180910390a35050565b600080600a836040516130499190614d21565b90815260200160405180910390205414159050919050565b8173ffffffffffffffffffffffffffffffffffffffff168373ffffffffffffffffffffffffffffffffffffffff16036130cf576040517f08c379a00000000000000000000000000000000000000000000000000000000081526004016130c690615794565b60405180910390fd5b80600560008573ffffffffffffffffffffffffffffffffffffffff1673ffffffffffffffffffffffffffffffffffffffff16815260200190815260200160002060008473ffffffffffffffffffffffffffffffffffffffff1673ffffffffffffffffffffffffffffffffffffffff16815260200190815260200160002060006101000a81548160ff0219169083151502179055508173ffffffffffffffffffffffffffffffffffffffff168373ffffffffffffffffffffffffffffffffffffffff167f17307eab39ab6107e8899845ad3d59bd9653f200f220920489ca2b5937696c31836040516131c09190613919565b60405180910390a3505050565b6131d8848484612c07565b6131e484848484613596565b806131f757506131f6848484846136ec565b5b613236576040517f08c379a000000000000000000000000000000000000000000000000000000000815260040161322d9061584c565b60405180910390fd5b50505050565b606060405180602001604052806000815250905090565b60606000820361329a576040518060400160405280600181526020017f300000000000000000000000000000000000000000000000000000000000000081525090506133ae565b600082905060005b600082146132cc5780806132b5906144a7565b915050600a826132c59190614814565b91506132a2565b60008167ffffffffffffffff8111156132e8576132e7613f84565b5b6040519080825280601f01601f19166020018201604052801561331a5781602001600182028036833780820191505090505b5090505b600085146133a757600182613333919061533d565b9150600a85613342919061586c565b603061334e91906143e4565b60f81b81838151811061336457613363614478565b5b60200101907effffffffffffffffffffffffffffffffffffffffffffffffffffffffffffff1916908160001a905350600a856133a09190614814565b945061331e565b8093505050505b919050565b600073ffffffffffffffffffffffffffffffffffffffff168273ffffffffffffffffffffffffffffffffffffffff1603613422576040517f08c379a0000000000000000000000000000000000000000000000000000000008152600401613419906158e9565b60405180910390fd5b61342b816129fc565b1561346b576040517f08c379a000000000000000000000000000000000000000000000000000000000815260040161346290615955565b60405180910390fd5b6134776000838361358c565b6001600360008473ffffffffffffffffffffffffffffffffffffffff1673ffffffffffffffffffffffffffffffffffffffff16815260200190815260200160002060008282546134c791906143e4565b92505081905550816002600083815260200190815260200160002060006101000a81548173ffffffffffffffffffffffffffffffffffffffff021916908373ffffffffffffffffffffffffffffffffffffffff160217905550808273ffffffffffffffffffffffffffffffffffffffff16600073ffffffffffffffffffffffffffffffffffffffff167fddf252ad1be2c89b69c2b068fc378daa952ba7f163c4a11628f55a4df523b3ef60405160405180910390a461358860008383613591565b5050565b505050565b505050565b60006135b78473ffffffffffffffffffffffffffffffffffffffff16613842565b156136df578373ffffffffffffffffffffffffffffffffffffffff16636745782b6135e0612a68565b8786866040518563ffffffff1660e01b815260040161360294939291906159ca565b6020604051808303816000875af192505050801561363e57506040513d601f19601f8201168201806040525081019061363b9190615a2b565b60015b61368f573d806000811461366e576040519150601f19603f3d011682016040523d82523d6000602084013e613673565b606091505b5060008151036136875760009150506136e4565b805181602001fd5b636745782b60e01b7bffffffffffffffffffffffffffffffffffffffffffffffffffffffff1916817bffffffffffffffffffffffffffffffffffffffffffffffffffffffff1916149150506136e4565b600190505b949350505050565b600061370d8473ffffffffffffffffffffffffffffffffffffffff16613842565b15613835578373ffffffffffffffffffffffffffffffffffffffff1663150b7a02613736612a68565b8786866040518563ffffffff1660e01b815260040161375894939291906159ca565b6020604051808303816000875af192505050801561379457506040513d601f19601f820116820180604052508101906137919190615a2b565b60015b6137e5573d80600081146137c4576040519150601f19603f3d011682016040523d82523d6000602084013e6137c9565b606091505b5060008151036137dd57600091505061383a565b805181602001fd5b63150b7a0260e01b7bffffffffffffffffffffffffffffffffffffffffffffffffffffffff1916817bffffffffffffffffffffffffffffffffffffffffffffffffffffffff19161491505061383a565b600190505b949350505050565b6000808273ffffffffffffffffffffffffffffffffffffffff163b119050919050565b6000604051905090565b600080fd5b600080fd5b60007fffffffff0000000000000000000000000000000000000000000000000000000082169050919050565b6138ae81613879565b81146138b957600080fd5b50565b6000813590506138cb816138a5565b92915050565b6000602082840312156138e7576138e661386f565b5b60006138f5848285016138bc565b91505092915050565b60008115159050919050565b613913816138fe565b82525050565b600060208201905061392e600083018461390a565b92915050565b600081519050919050565b600082825260208201905092915050565b6000819050602082019050919050565b600081519050919050565b600082825260208201905092915050565b60005b8381101561399a57808201518184015260208101905061397f565b60008484015250505050565b6000601f19601f8301169050919050565b60006139c282613960565b6139cc818561396b565b93506139dc81856020860161397c565b6139e5816139a6565b840191505092915050565b60006139fc83836139b7565b905092915050565b6000602082019050919050565b6000613a1c82613934565b613a26818561393f565b935083602082028501613a3885613950565b8060005b85811015613a745784840389528151613a5585826139f0565b9450613a6083613a04565b925060208a01995050600181019050613a3c565b50829750879550505050505092915050565b600081519050919050565b600082825260208201905092915050565b6000819050602082019050919050565b600073ffffffffffffffffffffffffffffffffffffffff82169050919050565b6000613add82613ab2565b9050919050565b613aed81613ad2565b82525050565b6000613aff8383613ae4565b60208301905092915050565b6000602082019050919050565b6000613b2382613a86565b613b2d8185613a91565b9350613b3883613aa2565b8060005b83811015613b69578151613b508882613af3565b9750613b5b83613b0b565b925050600181019050613b3c565b5085935050505092915050565b600081519050919050565b600082825260208201905092915050565b6000819050602082019050919050565b6000819050919050565b613bb581613ba2565b82525050565b6000613bc78383613bac565b60208301905092915050565b6000602082019050919050565b6000613beb82613b76565b613bf58185613b81565b9350613c0083613b92565b8060005b83811015613c31578151613c188882613bbb565b9750613c2383613bd3565b925050600181019050613c04565b5085935050505092915050565b600060a0820190508181036000830152613c588188613a11565b90508181036020830152613c6c8187613b18565b90508181036040830152613c808186613be0565b90508181036060830152613c948185613be0565b90508181036080830152613ca88184613a11565b90509695505050505050565b613cbd81613ba2565b8114613cc857600080fd5b50565b600081359050613cda81613cb4565b92915050565b600060208284031215613cf657613cf561386f565b5b6000613d0484828501613ccb565b91505092915050565b613d1681613ad2565b82525050565b6000602082019050613d316000830184613d0d565b92915050565b600082825260208201905092915050565b6000613d5382613960565b613d5d8185613d37565b9350613d6d81856020860161397c565b613d76816139a6565b840191505092915050565b60006020820190508181036000830152613d9b8184613d48565b905092915050565b613dac81613ad2565b8114613db757600080fd5b50565b600081359050613dc981613da3565b92915050565b60008060408385031215613de657613de561386f565b5b6000613df485828601613dba565b9250506020613e0585828601613ccb565b9150509250929050565b60006020820190508181036000830152613e298184613b18565b905092915050565b600080600060608486031215613e4a57613e4961386f565b5b6000613e5886828701613dba565b9350506020613e6986828701613dba565b9250506040613e7a86828701613ccb565b9150509250925092565b600060208284031215613e9a57613e9961386f565b5b6000613ea884828501613dba565b91505092915050565b60006020820190508181036000830152613ecb8184613be0565b905092915050565b613edc81613ba2565b82525050565b6000602082019050613ef76000830184613ed3565b92915050565b600060e082019050613f12600083018a613ed3565b8181036020830152613f248189613d48565b9050613f336040830188613d0d565b613f406060830187613ed3565b613f4d6080830186613ed3565b613f5a60a0830185613ed3565b81810360c0830152613f6c8184613d48565b905098975050505050505050565b600080fd5b600080fd5b7f4e487b7100000000000000000000000000000000000000000000000000000000600052604160045260246000fd5b613fbc826139a6565b810181811067ffffffffffffffff82111715613fdb57613fda613f84565b5b80604052505050565b6000613fee613865565b9050613ffa8282613fb3565b919050565b600067ffffffffffffffff82111561401a57614019613f84565b5b614023826139a6565b9050602081019050919050565b82818337600083830152505050565b600061405261404d84613fff565b613fe4565b90508281526020810184848401111561406e5761406d613f7f565b5b614079848285614030565b509392505050565b600082601f83011261409657614095613f7a565b5b81356140a684826020860161403f565b91505092915050565b6000806000606084860312156140c8576140c761386f565b5b600084013567ffffffffffffffff8111156140e6576140e5613874565b5b6140f286828701614081565b935050602061410386828701613ccb565b925050604084013567ffffffffffffffff81111561412457614123613874565b5b61413086828701614081565b9150509250925092565b6000602082840312156141505761414f61386f565b5b600082013567ffffffffffffffff81111561416e5761416d613874565b5b61417a84828501614081565b91505092915050565b61418c816138fe565b811461419757600080fd5b50565b6000813590506141a981614183565b92915050565b600080604083850312156141c6576141c561386f565b5b60006141d485828601613dba565b92505060206141e58582860161419a565b9150509250929050565b600067ffffffffffffffff82111561420a57614209613f84565b5b614213826139a6565b9050602081019050919050565b600061423361422e846141ef565b613fe4565b90508281526020810184848401111561424f5761424e613f7f565b5b61425a848285614030565b509392505050565b600082601f83011261427757614276613f7a565b5b8135614287848260208601614220565b91505092915050565b600080600080608085870312156142aa576142a961386f565b5b60006142b887828801613dba565b94505060206142c987828801613dba565b93505060406142da87828801613ccb565b925050606085013567ffffffffffffffff8111156142fb576142fa613874565b5b61430787828801614262565b91505092959194509250565b6000602082019050818103600083015261432d8184613a11565b905092915050565b6000806040838503121561434c5761434b61386f565b5b600061435a85828601613dba565b925050602061436b85828601613dba565b9150509250929050565b6000806040838503121561438c5761438b61386f565b5b600061439a85828601613ccb565b92505060206143ab85828601613ccb565b9150509250929050565b7f4e487b7100000000000000000000000000000000000000000000000000000000600052601160045260246000fd5b60006143ef82613ba2565b91506143fa83613ba2565b9250828201905080821115614412576144116143b5565b5b92915050565b7f4e487b7100000000000000000000000000000000000000000000000000000000600052602260045260246000fd5b6000600282049050600182168061445f57607f821691505b60208210810361447257614471614418565b5b50919050565b7f4e487b7100000000000000000000000000000000000000000000000000000000600052603260045260246000fd5b60006144b282613ba2565b91507fffffffffffffffffffffffffffffffffffffffffffffffffffffffffffffffff82036144e4576144e36143b5565b5b600182019050919050565b7f4b495031373a20617070726f76656420717565727920666f72206e6f6e65786960008201527f7374656e7420746f6b656e000000000000000000000000000000000000000000602082015250565b600061454b602b83613d37565b9150614556826144ef565b604082019050919050565b6000602082019050818103600083015261457a8161453e565b9050919050565b7f4b495031373a20617070726f76616c20746f2063757272656e74206f776e6572600082015250565b60006145b7602083613d37565b91506145c282614581565b602082019050919050565b600060208201905081810360008301526145e6816145aa565b9050919050565b7f4b495031373a20617070726f76652063616c6c6572206973206e6f74206f776e60008201527f6572206e6f7220617070726f76656420666f7220616c6c000000000000000000602082015250565b6000614649603783613d37565b9150614654826145ed565b604082019050919050565b600060208201905081810360008301526146788161463c565b9050919050565b7f4b495031373a207472616e736665722063616c6c6572206973206e6f74206f7760008201527f6e6572206e6f7220617070726f76656400000000000000000000000000000000602082015250565b60006146db603083613d37565b91506146e68261467f565b604082019050919050565b6000602082019050818103600083015261470a816146ce565b9050919050565b7f4f6e6c792073747564656e742063616e20706572666f726d207468697320616360008201527f74696f6e00000000000000000000000000000000000000000000000000000000602082015250565b600061476d602483613d37565b915061477882614711565b604082019050919050565b6000602082019050818103600083015261479c81614760565b9050919050565b60006147ae82613ba2565b91506147b983613ba2565b92508282026147c781613ba2565b915082820484148315176147de576147dd6143b5565b5b5092915050565b7f4e487b7100000000000000000000000000000000000000000000000000000000600052601260045260246000fd5b600061481f82613ba2565b915061482a83613ba2565b92508261483a576148396147e5565b5b828204905092915050565b7f4b495031373a206f776e657220717565727920666f72206e6f6e65786973746560008201527f6e7420746f6b656e000000000000000000000000000000000000000000000000602082015250565b60006148a1602883613d37565b91506148ac82614845565b604082019050919050565b600060208201905081810360008301526148d081614894565b9050919050565b7f4b495031373a2061646472657373207a65726f206973206e6f7420612076616c60008201527f6964206f776e6572000000000000000000000000000000000000000000000000602082015250565b6000614933602883613d37565b915061493e826148d7565b604082019050919050565b6000602082019050818103600083015261496281614926565b9050919050565b7f4f776e61626c653a2063616c6c6572206973206e6f7420746865206f776e6572600082015250565b600061499f602083613d37565b91506149aa82614969565b602082019050919050565b600060208201905081810360008301526149ce81614992565b9050919050565b7f436f7572736520776974682074686973206e616d6520616c726561647920657860008201527f6973747300000000000000000000000000000000000000000000000000000000602082015250565b6000614a31602483613d37565b9150614a3c826149d5565b604082019050919050565b60006020820190508181036000830152614a6081614a24565b9050919050565b60008190508160005260206000209050919050565b60006020601f8301049050919050565b600082821b905092915050565b600060088302614ac97fffffffffffffffffffffffffffffffffffffffffffffffffffffffffffffffff82614a8c565b614ad38683614a8c565b95508019841693508086168417925050509392505050565b6000819050919050565b6000614b10614b0b614b0684613ba2565b614aeb565b613ba2565b9050919050565b6000819050919050565b614b2a83614af5565b614b3e614b3682614b17565b848454614a99565b825550505050565b600090565b614b53614b46565b614b5e818484614b21565b505050565b5b81811015614b8257614b77600082614b4b565b600181019050614b64565b5050565b601f821115614bc757614b9881614a67565b614ba184614a7c565b81016020851015614bb0578190505b614bc4614bbc85614a7c565b830182614b63565b50505b505050565b600082821c905092915050565b6000614bea60001984600802614bcc565b1980831691505092915050565b6000614c038383614bd9565b9150826002028217905092915050565b614c1c82613960565b67ffffffffffffffff811115614c3557614c34613f84565b5b614c3f8254614447565b614c4a828285614b86565b600060209050601f831160018114614c7d5760008415614c6b578287015190505b614c758582614bf7565b865550614cdd565b601f198416614c8b86614a67565b60005b82811015614cb357848901518255600182019150602085019450602081019050614c8e565b86831015614cd05784890151614ccc601f891682614bd9565b8355505b6001600288020188555050505b505050505050565b600081905092915050565b6000614cfb82613960565b614d058185614ce5565b9350614d1581856020860161397c565b80840191505092915050565b6000614d2d8284614cf0565b915081905092915050565b6000608082019050614d4d6000830187613ed3565b8181036020830152614d5f8186613d48565b9050614d6e6040830185613d0d565b614d7b6060830184613ed3565b95945050505050565b7f436f75727365206e6f7420666f756e6400000000000000000000000000000000600082015250565b6000614dba601083613d37565b9150614dc582614d84565b602082019050919050565b60006020820190508181036000830152614de981614dad565b9050919050565b7f436f757273652069732066756c6c000000000000000000000000000000000000600082015250565b6000614e26600e83613d37565b9150614e3182614df0565b602082019050919050565b60006020820190508181036000830152614e5581614e19565b9050919050565b7f416c726561647920726567697374657265640000000000000000000000000000600082015250565b6000614e92601283613d37565b9150614e9d82614e5c565b602082019050919050565b60006020820190508181036000830152614ec181614e85565b9050919050565b60006040820190508181036000830152614ee28185613d48565b9050614ef16020830184613d0d565b9392505050565b7f496e76616c69642073657373696f6e2049440000000000000000000000000000600082015250565b6000614f2e601283613d37565b9150614f3982614ef8565b602082019050919050565b60006020820190508181036000830152614f5d81614f21565b9050919050565b7f53657373696f6e206e6f7420666f756e64000000000000000000000000000000600082015250565b6000614f9a601183613d37565b9150614fa582614f64565b602082019050919050565b60006020820190508181036000830152614fc981614f8d565b9050919050565b7f417474656e64616e636520616c7265616479206d61726b656400000000000000600082015250565b6000615006601983613d37565b915061501182614fd0565b602082019050919050565b6000602082019050818103600083015261503581614ff9565b9050919050565b7f53747564656e74206e6f7420656e726f6c6c656420696e2074686520636f757260008201527f7365000000000000000000000000000000000000000000000000000000000000602082015250565b6000615098602283613d37565b91506150a38261503c565b604082019050919050565b600060208201905081810360008301526150c78161508b565b9050919050565b60006040820190506150e36000830185613ed3565b6150f06020830184613d0d565b9392505050565b7f4f6e6c79206c656374757265722063616e20706572666f726d2074686973206160008201527f6374696f6e000000000000000000000000000000000000000000000000000000602082015250565b6000615153602583613d37565b915061515e826150f7565b604082019050919050565b6000602082019050818103600083015261518281615146565b9050919050565b7f4b495031374d657461646174613a2055524920717565727920666f72206e6f6e60008201527f6578697374656e7420746f6b656e000000000000000000000000000000000000602082015250565b60006151e5602e83613d37565b91506151f082615189565b604082019050919050565b60006020820190508181036000830152615214816151d8565b9050919050565b60006152278285614cf0565b91506152338284614cf0565b91508190509392505050565b7f4f6e6c792061646d696e2063616e20706572666f726d2074686973206163746960008201527f6f6e000000000000000000000000000000000000000000000000000000000000602082015250565b600061529b602283613d37565b91506152a68261523f565b604082019050919050565b600060208201905081810360008301526152ca8161528e565b9050919050565b7f73747564656e7420616c72656164792065786973747300000000000000000000600082015250565b6000615307601683613d37565b9150615312826152d1565b602082019050919050565b60006020820190508181036000830152615336816152fa565b9050919050565b600061534882613ba2565b915061535383613ba2565b925082820390508181111561536b5761536a6143b5565b5b92915050565b7f4c6563747572657220616c726561647920657869737473000000000000000000600082015250565b60006153a7601783613d37565b91506153b282615371565b602082019050919050565b600060208201905081810360008301526153d68161539a565b9050919050565b7f496e73756666696369656e7420746f6b656e7300000000000000000000000000600082015250565b6000615413601383613d37565b915061541e826153dd565b602082019050919050565b6000602082019050818103600083015261544281615406565b9050919050565b7f496e76616c696420636f75727365204944000000000000000000000000000000600082015250565b600061547f601183613d37565b915061548a82615449565b602082019050919050565b600060208201905081810360008301526154ae81615472565b9050919050565b6000819050919050565b6154d06154cb82613ba2565b6154b5565b82525050565b60008160601b9050919050565b60006154ee826154d6565b9050919050565b6000615500826154e3565b9050919050565b61551861551382613ad2565b6154f5565b82525050565b600061552a82866154bf565b60208201915061553a8285615507565b60148201915061554a82846154bf565b602082019150819050949350505050565b60006060820190506155706000830186613ed3565b61557d6020830185613ed3565b61558a6040830184613ed3565b949350505050565b7f4b495031373a206f70657261746f7220717565727920666f72206e6f6e65786960008201527f7374656e7420746f6b656e000000000000000000000000000000000000000000602082015250565b60006155ee602b83613d37565b91506155f982615592565b604082019050919050565b6000602082019050818103600083015261561d816155e1565b9050919050565b7f4b495031373a207472616e736665722066726f6d20696e636f7272656374206f60008201527f776e657200000000000000000000000000000000000000000000000000000000602082015250565b6000615680602483613d37565b915061568b82615624565b604082019050919050565b600060208201905081810360008301526156af81615673565b9050919050565b7f4b495031373a207472616e7366657220746f20746865207a65726f206164647260008201527f6573730000000000000000000000000000000000000000000000000000000000602082015250565b6000615712602383613d37565b915061571d826156b6565b604082019050919050565b6000602082019050818103600083015261574181615705565b9050919050565b7f4b495031373a20617070726f766520746f2063616c6c65720000000000000000600082015250565b600061577e601883613d37565b915061578982615748565b602082019050919050565b600060208201905081810360008301526157ad81615771565b9050919050565b7f4b495031373a207472616e7366657220746f206e6f6e20494b4950313752656360008201527f65697665722f49455243373231526563656976657220696d706c656d656e746560208201527f7200000000000000000000000000000000000000000000000000000000000000604082015250565b6000615836604183613d37565b9150615841826157b4565b606082019050919050565b6000602082019050818103600083015261586581615829565b9050919050565b600061587782613ba2565b915061588283613ba2565b925082615892576158916147e5565b5b828206905092915050565b7f4b495031373a206d696e7420746f20746865207a65726f206164647265737300600082015250565b60006158d3601f83613d37565b91506158de8261589d565b602082019050919050565b60006020820190508181036000830152615902816158c6565b9050919050565b7f4b495031373a20746f6b656e20616c7265616479206d696e7465640000000000600082015250565b600061593f601b83613d37565b915061594a82615909565b602082019050919050565b6000602082019050818103600083015261596e81615932565b9050919050565b600081519050919050565b600082825260208201905092915050565b600061599c82615975565b6159a68185615980565b93506159b681856020860161397c565b6159bf816139a6565b840191505092915050565b60006080820190506159df6000830187613d0d565b6159ec6020830186613d0d565b6159f96040830185613ed3565b8181036060830152615a0b8184615991565b905095945050505050565b600081519050615a25816138a5565b92915050565b600060208284031215615a4157615a4061386f565b5b6000615a4f84828501615a16565b9150509291505056fea2646970667358221220483fe9f4ff4b3b0400ade6ff5d0efeddd71054bab6dee3455d06afb29d613c4c64736f6c63430008130033",
  "linkReferences": {},
  "deployedLinkReferences": {}
}